:1000000000000020FD040000677000006D7000001B
:1000100073700000797000007F7000000000000025
:100020000000000000000000000000006D0500005E
:100030008570000000000000130600007306000039
:10004000256F0000336F0000416F00004F6F00000C
:100050005D6F00006B6F0000796F0000876F00001C
:10006000956F0000A36F0000B16F0000BF6F00002C
:10007000CD6F0000DB6F0000E96F0000F76F00003C
:10008000057000008B7000009170000097700000F8
:100090009D700000A3700000A9700000AF70000008
:1000A000B5700000BB700000C1700000C770000098
:1000B000CD700000D3700000D970000013700000F4
:1000C000DF70000021700000E57000002F7000005C
:1000D000EB7000003D700000F1700000F770000050
:1000E000FD70000003710000097100000F71000035
:1000F000157100001B7100002171000027710000C4
:100100000D0500000D0500000D0500000D050000A7
:100110002D71000033710000397100003F71000043
:10012000457100004B7100005171000057710000D3
:100130005D71000063710000697100006F71000063
:10014000757100007B7100004B7000008171000030
:1001500059700000877100008D71000093710000DC
:10016000997100009F710000A5710000AB71000043
:10017000B1710000B7710000BD710000C3710000D3
:10018000C97100000D0500000D0500000D050000FF
:100190000D0500000D0500000D0500000D05000017
:1001A0000D0500000D0500000D0500000D05000007
:1001B0000D0500000D0500000D0500000D050000F7
:1001C0000D0500000D0500000D0500000D050000E7
:1003F0000D0500000D0500000D050000FFFFFFFFCB
:10040000FFFFFFFFFFFFFFFFFFFFFFFFFEFFFFFFFD
:1004400010B5054C237833B9044B13B10448AFF30E
:1004500000800123237010BD9010002000000000D8
:1004600010FD000008B5034B1BB103490348AFF36F
:10047000008008BD000000009410002010FD000066
:10048000A3F5803A704700BF174B002B08BF134BF2
:100490009D46FFF7F5FF00218B460F461348144A8F
:1004A000121A0BF005FF0E4B002B00D098470D4B96
:1004B000002B00D098470020002104000D000D48BB
:1004C000002802D00C480BF0CFFB0BF013FC2000EF
:1004D000290003F08FFC0BF0D3FB00BF00000800E5
:1004E00000000000057400000000002090100020B3
:1004F000105A002069BC0000A1BC000072B606F0D2
:1005000029F906F0BFF862B6FFF7BEFFFFF7FEBF9E
:1005100080F309887047EFF309807047684680F3DD
:1005200009885A480078C00714BF0220032080F3CE
:1005300014887047DFF858C1EFF305831B0618BF16
:100540006047EFF31483DB0708BF604700DF7047A5
:10055000DFF840C1EFF305831B0618BF6047EFF3D8
:100560001483DB0708BF604700DF7047EFF30980A3
:10057000816911F8021CE1BB90E80F1010B5E0474B
:10058000BDE81040EFF3098C8CE80700424B93E87C
:100590000600914208BF704741B91EF0100F16D1F6
:1005A0003E49086820F00100086010E01EF0100FBE
:1005B00006BF2CED108A0120002081F825002CE9CF
:1005C000F00FC1F828C00CB408F03EFB0CBC1A6058
:1005D000D2F828C0BCE8F00F92F8250000280EBF22
:1005E0006FF0020E6FF0120EBCEC108A8CF30988CB
:1005F000704710B52A4A1268914209D8294C54F81C
:10060000214090E80F10A047EFF3098C8CE80F0011
:1006100010BD10B508F08AFABDE810401E4B93E8F3
:100620000600914208BF7047EFF3098C1EF0100FCF
:1006300006BF2CED108A0120002081F825002CE94E
:10064000F00FC1F828C00CB408F0FEFA0CBC1A6018
:10065000D2F828C0BCE8F00F92F8250000280EBFA1
:100660006FF0020E6FF0120EBCEC108A8CF309884A
:10067000704710B508F0CAFAFFF7CEBF10B508F002
:10068000C3FA08F0C3FAFFF7C7BF000040EB000051
:10069000B9840000D5840000AC59002034EF00E09C
:1006A00000000000FCFFFFFF81F0004102E000BFFE
:1006B00083F0004330B54FEA41044FEA430594EA22
:1006C000050F08BF90EA020F1FBF54EA000C55EA5D
:1006D000020C7FEA645C7FEA655C00F0E2804FEA2E
:1006E0005454D4EB5555B8BF6D420CDD2C4480EA10
:1006F000020281EA030382EA000083EA010180EA40
:10070000020281EA0303362D88BF30BD11F0004F8D
:100710004FEA01314FF4801C4CEA113102D04042C3
:1007200061EB410113F0004F4FEA03334CEA1333FE
:1007300002D0524263EB430394EA050F00F0A78016
:10074000A4F10104D5F1200E0DDB02FA0EFC22FA11
:1007500005F2801841F1000103FA0EF2801843FA05
:1007600005F359410EE0A5F120050EF1200E012AF6
:1007700003FA0EFC28BF4CF0020C43FA05F3C01834
:1007800051EBE37101F0004507D54FF0000EDCF1AD
:10079000000C7EEB00006EEB0101B1F5801F1BD356
:1007A000B1F5001F0CD349085FEA30004FEA3C0C5A
:1007B00004F101044FEA445212F5800F80F09A8050
:1007C000BCF1004F08BF5FEA500C50F1000041EB54
:1007D000045141EA050130BD5FEA4C0C404141EB58
:1007E0000101013C28BFB1F5801FE9D291F0000F53
:1007F00004BF01460020B1FA81F308BF2033A3F102
:100800000B03B3F120020CDA0C3208DD02F1140CF8
:10081000C2F10C0201FA0CF021FA02F10CE002F133
:100820001402D8BFC2F1200C01FA02F120FA0CFC2C
:10083000DCBF41EA0C019040E41AA2BF01EB045175
:10084000294330BD6FEA04041F3C1CDA0C340EDC73
:1008500004F11404C4F1200220FA04F001FA02F3B6
:1008600040EA030021FA04F345EA030130BDC4F174
:100870000C04C4F1200220FA02F001FA04F340EA69
:100880000300294630BD21FA04F0294630BD94F01A
:10089000000F83F4801306BF81F480110134013D01
:1008A0004EE77FEA645C18BF7FEA655C29D094EA72
:1008B000050F08BF90EA020F05D054EA000C04BFF0
:1008C0001946104630BD91EA030F1EBF00210020DB
:1008D00030BD5FEA545C05D14000494128BF41F07A
:1008E000004130BD14F580043CBF01F5801130BDDE
:1008F00001F0004545F0FE4141F470014FF0000069
:1009000030BD7FEA645C1ABF194610467FEA655C19
:100910001CBF0B46024650EA013406BF52EA0335BB
:1009200091EA030F41F4002130BD00BF90F0000FA9
:1009300004BF0021704730B54FF4806404F13204E5
:100940004FF000054FF0000150E700BF90F0000F9E
:1009500004BF0021704730B54FF4806404F13204C5
:1009600010F0004548BF40424FF000013EE700BF95
:1009700042004FEAE2014FEA31014FEA02701FBF25
:1009800012F07F4393F07F4F81F06051704732F057
:100990007F4208BF704793F07F4F04BF41F40021AE
:1009A000704730B54FF4607401F0004521F000410C
:1009B0001CE700BF50EA010208BF704730B54FF096
:1009C00000050AE050EA010208BF704730B511F097
:1009D000004502D5404261EB41014FF4806404F1CF
:1009E00032045FEA915C3FF4D8AE4FF003025FEA55
:1009F000DC0C18BF03325FEADC0C18BF033202EBD9
:100A0000DC02C2F1200300FA03FC20FA02F001FA32
:100A100003FE40EA0E0021FA02F11444BDE600BFD5
:100A200070B54FF0FF0C4CF4E06C1CEA11541DBF84
:100A30001CEA135594EA0C0F95EA0C0F00F0DEF84F
:100A40002C4481EA030621EA4C5123EA4C5350EA34
:100A5000013518BF52EA033541F4801143F4801385
:100A600038D0A0FB02CE4FF00005E1FB02E506F016
:100A70000042E0FB03E54FF00006E1FB03569CF06B
:100A8000000F18BF4EF0010EA4F1FF04B6F5007F71
:100A900064F5407404D25FEA4E0E6D4146EB0606E3
:100AA00042EAC62141EA55514FEAC52040EA5E506C
:100AB0004FEACE2EB4F1FD0C88BFBCF5E06F1ED816
:100AC000BEF1004F08BF5FEA500E50F1000041EB4D
:100AD000045170BD06F0004646EA010140EA0200FA
:100AE00081EA0301B4EB5C04C2BFD4EB0C0541EA1C
:100AF000045170BD41F480114FF0000E013C00F331
:100B0000AB8014F1360FDEBF002001F0004170BD54
:100B1000C4F10004203C35DA0C341BDC04F114046D
:100B2000C4F1200500FA05F320FA04F001FA05F2F9
:100B300040EA020001F0004221F0004110EBD370C6
:100B400021FA04F642EB06015EEA430E08BF20EAF2
:100B5000D37070BDC4F10C04C4F1200500FA04F395
:100B600020FA05F001FA04F240EA020001F0004127
:100B700010EBD37041F100015EEA430E08BF20EA9A
:100B8000D37070BDC4F1200500FA05F24EEA020EE2
:100B900020FA04F301FA05F243EA020321FA04F011
:100BA00001F0004121FA04F220EA020000EBD370C8
:100BB0005EEA430E08BF20EAD37070BD94F0000FC8
:100BC0000FD101F00046400041EB010111F4801FFC
:100BD00008BF013CF7D041EA060195F0000F18BFAD
:100BE000704703F00046520043EB030313F4801FE9
:100BF00008BF013DF7D043EA0603704794EA0C0FA3
:100C00000CEA135518BF95EA0C0F0CD050EA4106B8
:100C100018BF52EA4306D1D181EA030101F0004135
:100C20004FF0000070BD50EA410606BF104619465D
:100C300052EA430619D094EA0C0F02D150EA013669
:100C400013D195EA0C0F05D152EA03361CBF1046AA
:100C500019460AD181EA030101F0004141F0FE4149
:100C600041F470014FF0000070BD41F0FE4141F4CD
:100C7000780170BD70B54FF0FF0C4CF4E06C1CEACD
:100C800011541DBF1CEA135594EA0C0F95EA0C0F82
:100C900000F0A7F8A4EB050481EA030E52EA03353D
:100CA0004FEA013100F088804FEA03334FF080555E
:100CB00045EA131343EA12634FEA022245EA11158B
:100CC00045EA10654FEA00260EF000419D4208BF3C
:100CD000964244F1FD0404F5407402D25B084FEAE9
:100CE0003202B61A65EB03055B084FEA32024FF495
:100CF00080104FF4002CB6EB020E75EB030E22BFF2
:100D0000B61A754640EA0C005B084FEA3202B6EBB1
:100D1000020E75EB030E22BFB61A754640EA5C0060
:100D20005B084FEA3202B6EB020E75EB030E22BFF0
:100D3000B61A754640EA9C005B084FEA3202B6EBF1
:100D4000020E75EB030E22BFB61A754640EADC00B0
:100D500055EA060E18D04FEA051545EA16754FEA12
:100D600006164FEAC30343EA52734FEAC2025FEA30
:100D70001C1CC0D111F4801F0BD141EA00014FF0BF
:100D800000004FF0004CB6E711F4801F04BF014390
:100D90000020B4F1FD0C88BFBCF5E06F3FF6AFAEAC
:100DA000B5EB030C04BFB6EB020C5FEA500C50F13C
:100DB000000041EB045170BD0EF0004E4EEA1131BF
:100DC00014EB5C04C2BFD4EB0C0541EA045170BDC6
:100DD00041F480114FF0000E013C90E645EA060E0A
:100DE0008DE60CEA135594EA0C0F08BF95EA0C0F38
:100DF0003FF43BAF94EA0C0F0AD150EA01347FF480
:100E000034AF95EA0C0F7FF425AF104619462CE756
:100E100095EA0C0F06D152EA03353FF4FDAE1046B9
:100E2000194622E750EA410618BF52EA43067FF40A
:100E3000C5AE50EA41047FF40DAF52EA43057FF49A
:100E4000EBAE12E74FF0FF3C06E000BF4FF0010CA5
:100E500002E000BF4FF0010C4DF804CD4FEA410C09
:100E60007FEA6C5C4FEA430C18BF7FEA6C5C1BD0D6
:100E700001B050EA410C0CBF52EA430C91EA030F57
:100E800002BF90EA020F0020704710F1000F91EAB4
:100E9000030F58BF994208BF90422CBFD8176FEA82
:100EA000E37040F0010070474FEA410C7FEA6C5C50
:100EB00002D150EA013C07D14FEA430C7FEA6C5C57
:100EC000D6D152EA033CD3D05DF8040B704700BF83
:100ED0008446104662468C461946634600E000BFD1
:100EE00001B5FFF7B7FF002848BF10F1000F01BDA3
:100EF0004DF808EDFFF7F4FF0CBF012000205DF86E
:100F000008FB00BF4DF808EDFFF7EAFF34BF0120F2
:100F100000205DF808FB00BF4DF808EDFFF7E0FF8B
:100F200094BF012000205DF808FB00BF4DF808EDDC
:100F3000FFF7CEFF94BF012000205DF808FB00BF43
:100F40004DF808EDFFF7C4FF34BF012000205DF825
:100F500008FB00BF4FEA410C7FEA6C5C02D150EA0B
:100F6000013C0AD14FEA430C7FEA6C5C02D152EAA1
:100F7000033C02D14FF0000070474FF00100704772
:100F80004A0011D212F5001211D20DD56FF4787308
:100F9000B3EB62520ED44FEAC12343F0004343EA5D
:100FA000505323FA02F070474FF00000704750EAA8
:100FB000013002D14FF0FF3070474FF00000704712
:100FC00053B94AB9002908BF00281CBF4FF0FF31B0
:100FD0004FF0FF3001F0C0B8ADF1080C6DE904CE60
:100FE00000F006F8DDF804E0DDE9022304B0704704
:100FF0002DE9F047089D04468C46002B40F0838085
:101000008A42174647D9B2FA82F242B1C2F12000B1
:1010100024FA00F09140974040EA010C94404FEAD6
:101020001748230CBCFBF8F61FFA87FE08FB16C115
:1010300043EA014306FB0EF1994209D9FB1806F178
:10104000FF3080F01981994240F21681023E3B4404
:101050005B1AA4B2B3FBF8F008FB103344EA034474
:1010600000FB0EFEA64509D93C1900F1FF3380F0C4
:101070000581A64540F2028102383C4440EA064020
:10108000A4EB0E0400261DB1D4400023C5E90043A3
:101090003146BDE8F08702B9FFDEB2FA82F2002ADB
:1010A00050D1CB1B4FEA174E1FFA87F80126B3FB2E
:1010B000FEFC210C0EFB1C3341EA034108FB0CF340
:1010C0008B4207D979180CF1FF3002D28B4200F223
:1010D000E9808446C91AA3B2B1FBFEF00EFB1011E1
:1010E00043EA014408FB00F8A04507D93C1900F188
:1010F000FF3302D2A04500F2D9801846A4EB0804C1
:1011000040EA0C40BFE78B4209D9002D00F0B180C6
:101110000026C5E9000130463146BDE8F087B3FA44
:1011200083F6002E4AD18B4202D3824200F2B8806D
:10113000841A61EB030101208C46002DA8D0C5E97B
:10114000004CA5E7C2F1200320FA03F6974001FA0C
:1011500002F04FEA174ED9403043030CB1FBFEF6C4
:101160001FFA87F80EFB161143EA014306FB08F14C
:10117000994204FA02F409D9FB1806F1FF3C80F009
:101180008D80994240F28A80023E3B445B1A81B2D4
:10119000B3FBFEF00EFB103341EA034100FB08F302
:1011A0008B4207D9791800F1FF3C73D28B4271D979
:1011B00002383944CB1A40EA064678E7C6F1200CDB
:1011C00003FA06F422FA0CF31C4320FA0CF701FA96
:1011D00006F34FEA144E21FA0CF11F433B0CB1FB0E
:1011E000FEF91FFA84F80EFB191143EA014109FBCD
:1011F00008FA8A4502FA06F200FA06F308D96118DD
:1012000009F1FF3048D28A4546D9A9F102092144A3
:10121000A1EB0A01BFB2B1FBFEF00EFB101147EAD1
:10122000014700FB08F8B84507D9E71900F1FF317D
:101230002ED2B8452CD90238274440EA0940A7EB02
:101240000807A0FB02894F45C64649461AD317D066
:101250005DB1B3EB0E0267EB010707FA0CFCF2403D
:101260004CEA0202F740C5E9002700263146BDE8F6
:10127000F0872E4628460BE70646E9E61846FDE6C7
:101280004345E5D2B8EB020E69EB04010138DFE714
:101290000846D2E760468DE78146B9E7664675E7BE
:1012A00030464AE7ACF1020C394413E702383C44BB
:1012B00024E700BF03685A004CBF43F0004323F00B
:1012C00000431844704700BF2DE9F84329B34F1E6F
:1012D000044615463E464FF0000808EB060101EBB8
:1012E000D171491004EBC1094846FFF7E3FF0346FB
:1012F000C80008308F42204409D0AB4209D8FFF71C
:10130000D9FF0138A8420AD201F10108E5E7AB4252
:1013100005D9884501D04E1EDFE74FF00009484649
:10132000BDE8F883012807D0022807D0044B002825
:101330000CBF1846002070470248704702487047AB
:10134000E9190000ED190000F119000030B5234B38
:1013500083B004468D1E3BB301A92846AFF300803D
:10136000E8B101992A46FFF7AFFF0146B8B1FFF790
:10137000A1FF4B68A064012B2BD0002B01F10400CE
:1013800023DBFFF797FF0023C4E913030368002B57
:1013900010DBFFF78FFF2061002003B030BD00237A
:1013A0000920236103B030BD0D490E48091AC91048
:1013B0000191D7E7C3F30360FFF7B4FF0028206172
:1013C00014BF0020092003B030BD0123C4E913037A
:1013D000DCE7002323610520DFE700BF00000000F9
:1013E00014040100640001000368DA0710B5044624
:1013F00006D49B0700F1480009D500F04BFC236898
:10140000590709D51A070ED5DB0613D510BD00F014
:1014100039FC23685907F5D404F1D00000F042FCF0
:1014200023681A07F0D404F5A87000F043FC236881
:10143000DB06EBD404F5E870BDE8104000F07EBC9C
:101440000346006800B11844704700BF0920704788
:10145000704700BF70B504460E46316C2046FFF75A
:1014600075FF054688B9336C6361324623692146AE
:10147000012098470828F0D0072806D12846316C6B
:10148000FFF7E6FF301D00F0F1FB0AF0C7FB00BFDD
:101490002DE9F0470D1D064614460FCDADF5727DC2
:1014A0000DF10C0CACE80F000FCDACE80F000FCD28
:1014B000ACE80F0095E80F0002ADF768D6F8188089
:1014C0008CE80F0000232B6021E02B6C73614FF43C
:1014D000F07229467AA800F041FE33697AAA3146B3
:1014E00050469847889BCDE9005821466B64814659
:1014F000334632460120B8470446E8B94FF4F0724B
:101500007AA9284600F02AFEB9F1080F1BD1296CF0
:101510003046FFF71BFF09345FFA84FA8146002842
:10152000D3D0AB6B4AF01001CDE9005832466B6462
:1015300001203346B84708B14FF0090948460DF578
:10154000727DBDE8F087B9F1070FF5D12046296C0F
:10155000FFF77EFF03A800F089FB00BF406C7047D7
:10156000F0B5CB6B0B640E1D0F4605460FCEF9B0E0
:1015700001AC0FC40FCE0FC40FCE0FC496E80F00FE
:101580004FF0FF3684E80F00009606E02B696A46AC
:10159000294698470828044608D110992846FFF79D
:1015A000D5FE0028F2D0092079B0F0BD6846FFF7DB
:1015B0001BFF062CF7D139462846FFF74BFF00BF2B
:1015C00030B4DD6BC160826119461D64002230BCFD
:1015D0005EE700BF70B5C66843690B64AEB90369C6
:1015E0000A4604460D46014602209847072805D0C2
:1015F00008280FD129462046FFF72CFF3046296CDA
:10160000FFF726FF281D00F031FB0122FFF740FF06
:101610000AF004FB0AF002FBC2681AB1CA6B0A6442
:10162000002235E79CE700BF704700BF8368014692
:101630000BB1012018477047012912D009D873B99E
:101640000F2A0CD800EB820218465368009A1360E8
:1016500070470339012994BF0120022070470220FE
:1016600070470846704700BF10B584B0002303AC34
:101670000A4600941946FFF7DFFF039804B010BD37
:10168000012912D009D873B90F2A0CD800EB8200B7
:10169000009A12684260184670470339012994BFC6
:1016A000012002207047022070470846704700BFA3
:1016B00010B584B0002303AC039200940A46194687
:1016C000FFF7DEFF04B010BDF0B5D36B1364151D3A
:1016D0008C4606460FCDADF50F7D17AC0FC40FCD70
:1016E0000FC40FCD0FC495E80F004FF0FF3784E80B
:1016F0000F006546169710E0FFF7DAFF294616A897
:10170000B047034616AA6946082083B9049B984748
:10171000052804460CD0092809D026996846FFF709
:1017200015FE03466A460C2116A8002BE4D00924B6
:1017300016A8FFF759FE20460DF50F7DF0BD00BF3E
:101740002DE9F04FCC6C89B00D4654F8041B06947B
:10175000174600F003081E46002B79D00B0CDAB2B6
:1017600009048DF81D30022304EB820405918DF8E5
:101770001C302B6DB8F1020F08BFAC6B13F00103E6
:101780000CD0384605A900F073FB18B9082009B041
:10179000BDE8F08F092009B0BDE8F08FD4F800A0B3
:1017A000BAF1000FEDD0019300F008030293022E6E
:1017B0004AD0B4F800A0B4F802900434AA6C29F01E
:1017C000010B0F2138469344FFF74EFF834539D86C
:1017D0002AF001025A44824294BF002001204FEABD
:1017E000490303F002030AF0010A43EA0A03012B4A
:1017F00049D0022B32D0002BCCD1B8F1000F02D04F
:10180000002840F0CD800434D4F800A0BAF1000FD5
:10181000CDD105A9384600F02BFB0028BAD1019B99
:10182000002BB3D00F213846FFF71EFF0E210246D2
:101830003846FFF73DFF38466A4A0F21FFF738FF69
:101840000720A8E70020CAE7D4F804900834B5E7D9
:10185000090203230591ADF81C308AE7236823F0C1
:10186000004BB8F1000F45D128B1029A002A5CD094
:10187000BBF1000F74D0002B00DA04340BF1010B24
:1018800004EB8B04C0E7B8F1000F19D1B0B1D4E973
:101890000023991C4FEAD2723FF47CAF05F1580146
:1018A0000133049100F09080201DFFF7C9FD04ABC7
:1018B00001462846AFF3008000285BD10834A3E737
:1018C0000D213846D5F82090FFF7CEFE8145F5D1A1
:1018D000AB6A9C42F2D12046FFF7ECFC0F21024696
:1018E0003846FFF7E5FE38462A460021FFF7E0FEBE
:1018F000072050E70D213846D5F82090FFF7B4FEB9
:10190000814501D02368B6E7AB6A9C42FAD1042234
:101910000021C5E90B12A318C5F828B06B63236832
:101920008B4259DB01230193A8E705F15803CDF859
:101930000C8004F1040AB04691461E460DE0049660
:10194000FFF77EFD04AB014600222846AFF300807E
:1019500009F101090AF1040AE8B9D9455046EED166
:1019600038460D21FFF780FE049B2862C5E9093443
:10197000062010E781460D213846FFF775FEB9F1C4
:10198000020F286225D12B46049A43F82C2F6B6254
:10199000AC620620FFE646462368DDF80C806AE765
:1019A0002046FFF787FC04340246AC632846144601
:1019B000AFF3008000283FF4EDAE384622460F21F9
:1019C000FFF776FE0720E6E638460D21FFF74CFECE
:1019D0002862049B6B62DBE70BF1010004EB8000E3
:1019E0007AE700BF000000000023A9E60123A7E674
:1019F0000223A5E62DE9F0430646C3B015461C4672
:101A0000042900F2B980DFE801F09A53B7290300F6
:101A1000002C40F0B180102A00F2AE800368D80696
:101A200000F1F38020AF384600F092F9B06B00234C
:101A3000012404FA03F22A42014604D051F8042B8F
:101A400047F8232008460133042BF2D1B06338460F
:101A500000F074F9002043B0BDE8F083032C40F09F
:101A60008B8094B204EB1243102B4FEA124500F224
:101A7000838003681F0700F1D08020AF384600F054
:101A80003BF907EBC501B56B54B10B46E81A01EB06
:101A9000C401E4001A5843F8042B8B42FAD12544C0
:101AA0003846B56300F006F9002043B0BDE8F08386
:101AB000012C4FEA124895B25AD0052C5CD108EBA4
:101AC0000509B9F1200F57D8B8F10F0F77D9A946FA
:101AD000002D40F08880B36B6DB320AF4FF000094C
:101AE00007EBC807043F03EBC50553F8041B47F891
:101AF000041FAB42F9D1B9F1000F0FD06F46414638
:101B0000102938BF102107EBC101843903EBC90547
:101B100053F8040B41F8040FAB42F9D1012C00F04B
:101B20008480B8F10F0FB56345D9B9F1000F02D029
:101B3000684600F0B7F8002043B0BDE8F083DCB998
:101B4000876B2346012094B206F1040C00FA03F2DD
:101B50002242394604D051F8042B4CF823200F467A
:101B60000133102BF2D115F40050E4D1B76304E037
:101B700008EB0503102B03D9022043B0BDE8F08326
:101B8000B8F10F0FF8D83368DA0706D5304623F0DE
:101B9000030340F8483B00F079F820AF384600F0E6
:101BA00075F8B36B002D99D11D460435B5633846E1
:101BB00000F068F8BFE720A800F06CF8B5E7B9F1CD
:101BC000100F40D9A9F110093368D90708D523F0BF
:101BD0000103304643F0020340F8483B00F05EF852
:101BE000B9F1000F32D033685A0720D4B8F10F0F83
:101BF00025D96F463846C8F1100500F057F8002D7A
:101C0000B36B7FF77CAF20AF6AE723F0100333603C
:101C100006F5E87000F09CF804E723F00803036081
:101C200000F5A87000F068F827E720AFBDE7304660
:101C300023F0040340F8D03B00F038F8D6E720A8A2
:101C400000F02CF8D5E74FF00009BDE7B8F10F0F11
:101C50003FF641AF20AF384600F020F8B36B002DBF
:101C60007FF43CAF384600F015F864E700F134012A
:101C700091E838009C46A6464CF8045D90E8FF0FBA
:101C8000E54600BD90EC210B704700BF80EC210BB6
:101C9000704700BF90EC200B704700BF80EC200B1A
:101CA000704700BFD0EC200B704700BFC0EC200B8A
:101CB000704700BFF0EC0201F0EC0211F0EC0221E1
:101CC000F0EC0231F0EC0241F0EC0251F0EC026178
:101CD000F0EC0271F0EC0281F0EC0291F0EC02A168
:101CE000F0EC02B1F0EC02C1F0EC02D1F0EC02E158
:101CF000F0EC02F1704700BFE0EC0201E0EC0211F1
:101D0000E0EC0221E0EC0231E0EC0241E0EC0251B7
:101D1000E0EC0261E0EC0271E0EC0281E0EC0291A7
:101D2000E0EC02A1E0EC02B1E0EC02C1E0EC02D197
:101D3000E0EC02E1E0EC02F1704700BFB0FC018191
:101D4000B0FC0191B0FC01A1B0FC01B1704700BF33
:101D5000A0FC0181A0FC0191A0FC01A1A0FC01B1AB
:101D6000704700BFEC4600B52DE900502DE9FF1F7C
:101D70004FF000032DE90C0001A9FFF7F1FBDDF89E
:101D800040E012B0704700BFEC4600B52DE90050AE
:101D90002DE9FF1F4FF000032DE90C0001A9FFF70B
:101DA00019FCDDF840E012B0704700BFEC4600B50A
:101DB0002DE900502DE9FF1F4FF000032DE90C0025
:101DC00001A9FFF729FCDDF840E012B0704700BF21
:101DD000EC4600B52DE900502DE9FF1F4FF0000340
:101DE0002DE90C0001ABFFF7EBFBDDF840E012B092
:101DF000704700BFEC4600B52DE900502DE9FF1FEC
:101E00004FF000032DE90C0001AAFFF75DFCDDF89F
:101E100040E012B0704700BF027A7AB9437AA3B1AA
:101E20004268013B10B4437213680321141D017210
:101E30001A024460026010BC180E70470368013A31
:101E400002721A020260180E7047B020704700BF7D
:101E500000B585B003AA0023009219460C22FFF7B3
:101E6000EBFB039805B05DF804FB00BFF0E700BF93
:101E70002DE9F043054685B00E464FF00008304688
:101E8000FFF7CAFFB028044600F0B280070620D54D
:101E900000F0F003802B4DD0902B36D0A02B60D0DB
:101EA000B02B74D0C02B00F08B8000F0F803D02B47
:101EB0000BD100F00702013242F400220523012178
:101EC0002846FFF797FD0028D9D0092005B0BDE8C6
:101ED000F0830DF10C09002319468700CDF800901E
:101EE0000D222846FFF7A8FBFFB2039BCDF8009018
:101EF000043760064CBFDF1BFF18002319460D2274
:101F000028460397FFF7BCFBB9E700F00D030D2B44
:101F1000DBD003AF002300F00F02194600972846DC
:101F2000FFF78AFB0023009719460D222846FFF78A
:101F3000A7FBA4E73046FFF76FFF24022043B0F56C
:101F4000004FC2D004010023A2B219462846FFF771
:101F500051FD0028B9D114F4004F18BF4FF001080B
:101F60008DE7C24302F007034FF47F621A41010775
:101F700002F47F624FF0000348BF42F480421946EA
:101F80002846FFF737FD00283FF479AF9DE7B128D9
:101F900033D0B22800F08B80B32839D000F0FC0396
:101FA000B42B92D000F007020132012342F4002248
:101FB00019462846FFF71EFD00283FF460AF84E76E
:101FC000C62842D0C7284CD000F0F803C02B5BD005
:101FD000C82860D0C9287FF478AF3046FFF71CFFCF
:101FE000020300F00F0002F470220130024365E7A3
:101FF000B8F1000F18D0002068E73046FFF70CFF5B
:10200000024600283FF461AF10F0F003D0D05CE747
:102010003046FFF701FF010300F00F0001F47021CB
:10202000421C01230A43C3E703AC43460E22414648
:1020300000942846FFF700FB0094284643460F22F1
:102040004146FFF71DFB404640E73046FFF7E4FE00
:10205000010300F00F0001F47021421C03230A4326
:10206000A6E73046FFF7D8FE024600283FF42DAF22
:1020700010F0F0037FF429AF04212846FFF7BAFCE3
:1020800000283FF4FCAE20E700F00F0201320323EA
:1020900042F420228CE73046FFF7BEFE00F0F0024B
:1020A00000F00F031032013343EA023206E7002347
:1020B0000DF10C090D221946CDF800902846FFF7C6
:1020C000BBFA3046FFF7A8FE02064FF002070CD518
:1020D000039B00F07F00B840034430460393FFF7B2
:1020E0009BFE030607F10707F2D4039BCDF800908F
:1020F00000F07F0403F50172BC400023144419462C
:102100000D2228460394FFF7BBFAB8E610B5C26C5F
:1021100084B0536803248DF80C401B0202F10804BC
:102120000846D279019301A902948DF80D20FFF79A
:102130009FFE04B010BD00BF08B5FFF797FE806C8E
:1021400008BD00BF08B5FFF791FEC06CC37902332C
:1021500000EB830008BD00BF704700BF844641EA22
:10216000000313F003036DD1403A41D351F8043B0F
:1021700040F8043B51F8043B40F8043B51F8043B61
:1021800040F8043B51F8043B40F8043B51F8043B51
:1021900040F8043B51F8043B40F8043B51F8043B41
:1021A00040F8043B51F8043B40F8043B51F8043B31
:1021B00040F8043B51F8043B40F8043B51F8043B21
:1021C00040F8043B51F8043B40F8043B51F8043B11
:1021D00040F8043B51F8043B40F8043B51F8043B01
:1021E00040F8043B51F8043B40F8043B403ABDD270
:1021F000303211D351F8043B40F8043B51F8043B12
:1022000040F8043B51F8043B40F8043B51F8043BD0
:1022100040F8043B103AEDD20C3205D351F8043BA0
:1022200040F8043B043AF9D2043208D0D2071CBF6C
:1022300011F8013B00F8013B01D30B880380604695
:10224000704700BF082A13D38B078DD010F003030B
:102250008AD0C3F10403D21ADB071CBF11F8013B7B
:1022600000F8013B80D331F8023B20F8023B7BE7CA
:10227000043AD9D3013A11F8013B00F8013BF9D2F5
:102280000B7803704B7843708B788370604670478F
:1022900001F0FF01102A2BDB10F0070F08D010F817
:1022A000013B013A8B422DD010F0070F42B3F6D11B
:1022B000F0B441EA012141EA014122F007047FF034
:1022C00000070023F0E80256083C85EA010586EA8B
:1022D000010685FA47F5A3FA87F586FA47F6A5FAC7
:1022E00087F68EB9EED1F0BC01F0FF0102F00702D3
:1022F00032B110F8013B013A83EA010313B1F8D17E
:102300000020704701387047002D06BF354603385E
:10231000073815F0010F07D1013015F4807F02BF97
:10232000013015F4C03F0130F0BC0138704700BFE8
:10233000000000000000000000000000000000009D
:1023400090F800F06DE9024520F007016FF0000CF5
:1023500010F0070491F820F040F049804FF000049D
:102360006FF00700D1E9002391F840F000F1080078
:1023700082FA4CF2A4FA8CF283FA4CF3A2FA8CF3B0
:102380004BBBD1E9022382FA4CF200F10800A4FA17
:102390008CF283FA4CF3A2FA8CF3E3B9D1E904236B
:1023A00082FA4CF200F10800A4FA8CF283FA4CF3A2
:1023B000A2FA8CF37BB9D1E9062301F1200182FA5C
:1023C0004CF200F10800A4FA8CF283FA4CF3A2FA62
:1023D0008CF3002BC6D0002A04BF04301A4612BA70
:1023E000B2FA82F2FDE8024500EBD2007047D1E973
:1023F000002304F00305C4F100004FEAC50514F002
:10240000040F91F840F00CFA05F562EA05021CBFD2
:1024100063EA050362464FF00004A9E780B590B077
:1024200000AF78600B46FB70FB78002B27D107F1DB
:10243000240300221A605A609A60DA601A615A61B5
:102440002D4A7B6852F833307B62012387F82830AD
:10245000012387F829304FF0FF333B6307F1240352
:10246000184607F05FFF244A7B68DB001344012213
:102470001A717B68DB00204A1344FB6336E0FB786B
:10248000012B31D107F10C0300221A605A609A60C7
:10249000DA601A615A61184A7B6852F83330FB607F
:1024A00001233B754FF0FF33BB6107F10C03184666
:1024B00007F0AAFF104A7B68DB00134402221A715E
:1024C0007B68292B0AD97B682C2B07D80A4A7B68A2
:1024D00052F833300121184607F0D2FF7B68DB0049
:1024E000054A1344FB6301E00023FB63FB6B1846C2
:1024F0004037BD4680BD00BF0000002080B586B0DB
:1025000000AF78607B683B613B69002B0BD03B6977
:102510001B79012B07D13B691B68184607F0BEFFEA
:102520000346FB7501E00023FB753B691B681B0A32
:10253000DBB2FB603B691B68DBB2BB60FB68022B54
:1025400002D1BB68062B05D0FB68002B09D1BB6804
:10255000042B06D1FB7D002B0CBF01230023DBB233
:10256000FB75FB7D18461837BD4680BD80B586B02B
:1025700000AF78600B46FB707B687B617B69002B4A
:102580002FD07B691B79022B2BD17B691B681B0A1F
:10259000DBB23B617B691B68DBB2FB603B69012BF3
:1025A00005D1FB68162B08D0FB68152B05D03B69BD
:1025B000042B0FD1FB681A2B0CD17B691A68FB78AE
:1025C000012B14BF01230023DBB21946104607F08C
:1025D00057FF06E07B691B68FA781146184607F03A
:1025E0004FFF00BF1837BD4680BD80B485B000AF37
:1025F00078607B68FB60FB68002B0ED0FB681B7962
:10260000022B03D1FB6800221A7106E0FB681B79DC
:10261000012B02D1FB6800221A7100BF1437BD469E
:102620005DF8047B7047000080B584B000AFF860AF
:10263000B9601346FB71BB681F2B05D90D4B0E4AC1
:10264000FF210E4809F0F2FAFB68BA6853F822300D
:1026500023F0807323F4E063FA79120202F4E0625B
:1026600043EA0201FB68BA6843F8221000BF103742
:10267000BD4680BD1CE8000024EA000028E80000F8
:1026800080B483B000AF78600B46FB707B681B683A
:1026900023F01802FB78DB0003F018031A437B6871
:1026A0001A6000BF0C37BD465DF8047B7047000020
:1026B00080B58EB000AF786187ED020B87ED001B0F
:1026C000524A7B695B01134411331B78002B40F0A5
:1026D0008780002387F82830002387F829300023DB
:1026E00087F82A308023FB62484A7B695B011344E8
:1026F0001868464A7B695B01134404331968434AEE
:102700007B695B01134410331B781A46FFF78CFF7B
:102710003E4A7B695B01134408331B6807F12802BA
:102720001146184607F026FC384A7B695B011344C2
:1027300008331B68DBB200220121184607F0A0FC19
:10274000324A7B695B011344113304221A702F4A09
:102750007B695B01134403F11801D7E90223C1E946
:10276000002302233B7600237B76284A7B695B01AA
:1027700013441833D3E9002310461946FEF700FC32
:102780000346FB61D7E90001FEF7FAFB03463B6213
:102790000023BB841D4A7B695B01134408331B681B
:1027A0001B4A52F823303B630021386BFFF768FF68
:1027B000164A7B695B01134408331868134A7B6926
:1027C0005B0113440C331B68DAB207F11803194696
:1027D00007F0B4FC7B695B010C4A13447B630FE098
:1027E0000A4A7B695B01134411331B78042B05D122
:1027F0007B695B01054A13447B6301E000237B6333
:102800007B6B18463837BD4680BD00BF780100207D
:102810005CF4000080B483B000AF786000BF0C3778
:10282000BD465DF8047B704780B58AB000AFF860A4
:1028300087ED000BFB687B627B6A002B2CD07B6AE8
:102840005B7C042B28D102233B7400237B747B6ABE
:10285000D3E9062310461946FEF792FB03467B6137
:10286000D7E90001FEF78CFB0346BB610023BB8365
:102870007B6A9B680A4A52F823303B620021386A1F
:10288000FFF7FEFE7B6A98687B6ADB68DAB207F1C5
:102890001003194607F052FC00BF2837BD4680BD23
:1028A0005CF4000080B485B000AF78607B68FB60AA
:1028B000FB68002B06D0FB685B7C042B02D1FB6815
:1028C00000225A7400BF1437BD465DF8047B704780
:1028D00080B483B000AF786000BF0C37BD465DF8B0
:1028E000047B704780B582B000AF786006F0CAFE06
:1028F000034618460837BD4680BD80B483B000AF9C
:1029000078607B68023303F1424303F580135B0177
:102910001C3301221A7000BF0C37BD465DF8047BE2
:10292000704780B483B000AF78607B68023303F1F6
:10293000424303F580135B010C3300221A7000BF81
:102940000C37BD465DF8047B704780B483B000AFA0
:1029500078607B68023303F1424303F580135B0127
:102960000C3301221A7000BF0C37BD465DF8047BA2
:10297000704780B483B000AF78600B46FB707B6813
:10298000023303F1424303F580135B0110331A460F
:10299000FB78137000BF0C37BD465DF8047B7047B1
:1029A00080B483B000AF78607B681B79DBB21846D7
:1029B0000C37BD465DF8047B704780B483B000AF30
:1029C00078600B46FB707B68FA781A7100BF0C3791
:1029D000BD465DF8047B704780B483B000AF78607B
:1029E0000B46FB707B68DB78DBB21A46FB7842FA59
:1029F00003F303F00103002B14BF01230023DBB218
:102A000018460C37BD465DF8047B704780B483B030
:102A100000AF78607B68023303F1424303F5801313
:102A20005B0114331B78DBB2002B14BF012300239E
:102A3000DBB218460C37BD465DF8047B704780B4A6
:102A400083B000AF78600B46FB707B68023303F104
:102A5000424303F580135B011833FA781A7000BF04
:102A60000C37BD465DF8047B704780B483B000AF7F
:102A700078607B680222DA7000BF0C37BD465DF8D3
:102A8000047B704780B584B000AFF860B96013462E
:102A9000FB71BB681F2B05D90B4B0C4AD9210C4885
:102AA00009F0C4F8BB689B00FA68134403F1424381
:102AB00003F580135B0114331A46FB79136000BFE2
:102AC0001037BD4680BD00BF60E8000058EA000036
:102AD0006CE8000080B584B000AFF860B9601346C0
:102AE000FB71BB681F2B05D90D4B0E4AFF210E4809
:102AF00009F09CF8FB68BA6853F8223023F0807321
:102B000023F4E063FA79120202F4E06243EA02017C
:102B1000FB68BA6843F8221000BF1037BD4680BD7D
:102B200060E8000044EA00006CE8000080B584B072
:102B300000AF78607B681B680F4A52F82330FB6057
:102B40007B681B68184600F0EFF97B681B68184625
:102B500006F00EFEF86807F0BFFCF868FFF7CDFE40
:102B60000121F868FFF76BFF0449786800F0FCF872
:102B700000BF1037BD4680BD38EA0000A0860100C6
:102B800080B584B000AF78607B681B68054A52F856
:102B90002330FB60F86807F0E5FC00231846103787
:102BA000BD4680BD38EA000080B584B000AF7860D3
:102BB0000023BB607B681B680E4A52F82330FB6021
:102BC000F868FFF723FF0346002B02D0F86807F0F0
:102BD000D9FC0023BB6004E000BF00BFBB68013329
:102BE000BB60BB68C72BF7D9002318461037BD461A
:102BF00080BD00BF38EA000080B586B000AF7860C5
:102C00000B46FB70104B3B617B681B680F4A52F808
:102C10002330FB6000237B610CE0FB781946F868E9
:102C2000FFF7DAFE0346002B01D0002307E07B69A3
:102C300001337B617A693B699A42EED301231846DE
:102C40001837BD4680BD00BFA086010038EA0000ED
:102C500080B584B000AF78607B681B68104A52F87A
:102C60002330FB6001217868FFF7C6FF0346002B85
:102C700001D0022310E0F868FFF7F7FE072178681B
:102C8000FFF7BAFF0346002B01D0022304E0002126
:102C9000F868FFF7A1FE034618461037BD4680BD11
:102CA00038EA000080B584B000AF78607B681B68AC
:102CB0000A4A52F82330FB6001217868FFF79CFF35
:102CC0000346002B01D0012303E0F868FFF7CDFE97
:102CD000002318461037BD4680BD00BF38EA00000B
:102CE00080B584B000AF786039607B681B68094AA2
:102CF00052F82330FB603B68DBB21946F868FFF7F7
:102D00005CFE7868FFF7A4FF034618461037BD46FF
:102D100080BD00BF38EA000080B586B000AFF86023
:102D2000B9607A60FB681B680E4A52F823307B61F9
:102D30007B68002B03D07869FFF707FE02E0786913
:102D4000FFF7EFFD7869FFF72BFE03461A46BB68D5
:102D50001A70F868FFF7A6FF034618461837BD46F5
:102D600080BD00BF38EA000080B584B000AF786055
:102D700039607B681B680E4A52F82330FB607B6821
:102D80001B681846FFF7AEFD0346BB603B68094A67
:102D900082FB03129211DB17D31A1A460023B9687B
:102DA000F86807F0A7FB00BF1037BD4680BD00BF25
:102DB00038EA0000D34D621090B589B000AFF860DA
:102DC000B9607A603B60F868FFF7DAFE0346002BD3
:102DD00005D0F868FFF7E8FE6FF0010355E0BB6827
:102DE00043F001031946F868FFF77AFF0346002B0A
:102DF00005D0F868FFF7D8FE4FF0FF3345E0FB68D9
:102E00001B68244A52F82330BB610021B869FFF7E0
:102E1000B0FD0023FB6124E0FB69002B02D107F128
:102E2000120303E0FB69013B7A6813447B613B6852
:102E3000013BFA699A420CBF01230023DBB2FB7409
:102E4000FB7C1A467969F868FFF766FF0346002B9A
:102E500004D0F868FFF7A8FEFB6916E0FB690133B0
:102E6000FB61FA693B689A42D6DB3B6B002B02D0D0
:102E7000F868FFF799FEFB69013B7A68D418B869D6
:102E8000FFF78EFD034623703B6818462437BD4686
:102E900090BD00BF38EA000080B586B000AFF86092
:102EA000B9607A603B60F868FFF76AFE0346002B62
:102EB00005D0F868FFF778FE6FF0010330E0BB68DB
:102EC00003F0FE031946F868FFF70AFF0346002BDC
:102ED00005D0F868FFF768FE4FF0FF3320E00023CD
:102EE0007B6112E07B697A6813441B781946F868A5
:102EF000FFF7F6FE0346002B04D0F868FFF754FEF8
:102F00007B690DE07B6901337B617A693B689A429A
:102F1000E8DB3B6A002B02D0F868FFF745FE3B6810
:102F200018461837BD4680BD80B582B000AF7860C6
:102F30007B68002B03D07B68012B15D029E005228C
:102F400018211648FFF7C6FD012218211348FFF784
:102F500099FD052219211148FFF7BCFD0122192115
:102F60000E48FFF78FFD14E002220A210C48FFF7FC
:102F7000B1FD01220A210A48FFF784FD02220B213C
:102F80000748FFF7A7FD01220B210548FFF77AFD4F
:102F900000BF00BF0837BD4680BD00BF00D0044061
:102FA00000B0044080B584B000AF78600B46FB7081
:102FB0007B68012B11D80C497B687A6841F8232083
:102FC0007B689B00084A13441846FFF7AFFD7B68F7
:102FD0009B00054A1344FB6001E00023FB60FB6893
:102FE00018461037BD4680BDB010002080B584B0B3
:102FF00000AF786039607B68002B07D03B681946CA
:103000007868FFF7B1FE0023FB7301E00823FB7330
:10301000FB7B18461037BD4680BD80B588B002AF37
:10302000F8607A603B600B467B8100237B6197F8F8
:103030002030002B0CBF01230023DBB23B61FB6877
:10304000002B19D07B8959003A683B6900931346DD
:103050007A68F868FFF7B0FE03467B617B6913F17D
:10306000020F01D1012308E07B69B3F1FF3F01D1D9
:10307000042302E0002300E0082318461837BD4669
:1030800080BD80B588B002AFF8607A603B600B46C7
:103090007B8100237B6197F82030002B0CBF01233C
:1030A0000023DBB23B61FB68002B19D07B89590000
:1030B0003A683B69009313467A68F868FFF7ECFEBC
:1030C00003467B617B6913F1020F01D1012308E004
:1030D0007B69B3F1FF3F01D1042302E0002300E04C
:1030E000082318461837BD4680BD80B483B000AFB2
:1030F000786000BF0C37BD465DF8047B7047000068
:1031000080B584B000AFF860B9607A60BB680F2BFF
:1031100006D90A4B0A4A40F2E2210A4808F086FD25
:10312000FA68BB685B01134403F5805310337A6877
:103130001A6000BF1037BD4680BD00BFA4E8000084
:1031400098EA0000D0E8000080B584B000AFF860D5
:10315000B9601346FB71BB680F2B06D90D4B0E4AA5
:103160004FF460710D4808F061FDBB685B0103F529
:1031700080531833FA681344043303F1424303F5D0
:1031800080135B010433FA7992B21A8000BF1037C2
:10319000BD4680BDA4E80000B4EA0000D0E800000D
:1031A00090B587B000AFF8607A603B600B46FB7269
:1031B00000237B61FB681B68032B00F0E481032B79
:1031C00005D8012B00F09880022B00F04781954B29
:1031D00000221A60934B1B68934A52F82330002B4D
:1031E00041D1904B1B68914ADB00134400229A7135
:1031F0008C4B1B688D4ADB00134400221A71894BEB
:103200001B688A4ADB00134400225A71854B1B68F5
:10321000864A4FF4E13142F83310824B1B6818465E
:1032200003F0B6FD7F4B1B689B01814A1344814923
:10323000184606F0ABFD7B4B18687A4B1A681346AC
:103240001B019B1A9B007C4A9918764B1B68DB007C
:10325000764A13441A4607F099FE724B1B68724A6D
:10326000012142F823107B68B3F1FF3F20D06D4B62
:103270001A68724913469B0013449B000B441322A7
:103280001A60684B1A686D4913469B0013449B00F3
:103290000B4408336A4A1A60624B1A68674913463E
:1032A0009B0013449B000B440C33664A1A6015E0E4
:1032B0005C4B1A68614913469B0013449B000B4406
:1032C000043358221A60574B1A685C4913469B0016
:1032D00013449B000B4410335B4A1A60514B1B682C
:1032E000504A1268594941F823204E4B1B689B00F5
:1032F000564A13447B61DBE14A4B01221A60494B79
:103300001B68494A52F82330002B41D1454B1B68BA
:10331000464ADB00134400229A71424B1B68434A21
:10332000DB00134400221A713E4B1B683F4ADB004E
:10333000134400225A713B4B1B683C4A4FF4E13165
:1033400042F83310374B1B68184603F021FD354B0C
:103350001B689B01364A13443649184606F016FD91
:10336000304B18682F4B1A6813461B019B1A9B00A1
:10337000314A99182B4B1B68DB002C4A13441A4620
:1033800007F004FE274B1B68274A012142F823104F
:103390007B68B3F1FF3F20D0224B1A6827491346C0
:1033A0009B0013449B000B4400221A601D4B1A68BB
:1033B000224913469B0013449B000B440833244AC4
:1033C0001A60184B1A681D4913469B0013449B0052
:1033D0000B440C331F4A1A6015E0124B1A68174948
:1033E00013469B0013449B000B44043300221A60D5
:1033F0000C4B1A68114913469B0013449B000B4465
:103400001033154A1A60074B1B68064A12680F49A9
:1034100041F82320034B1B689B000C4A13447B613B
:1034200046E100BF001500200415002020140020F4
:103430003811002078060020B8120020581400200F
:10344000B8100020CC100020E0100020E81400206C
:10345000E0100020E010002038110020AD4B0222C7
:103460001A60AC4B1B68AC4A52F82330002B41D198
:10347000A84B1B68A94ADB00134400229A71A54B94
:103480001B68A64ADB00134400221A71A14B1B687B
:10349000A24ADB00134400225A719E4B1B689F4ACC
:1034A0004FF4E13142F833109A4B1B68184603F091
:1034B0006FFC984B1B689B01994A13449949184625
:1034C00006F064FC934B1868924B1A6813461B0174
:1034D0009B1A9B00944A99188E4B1B68DB008F4AFD
:1034E00013441A4607F052FD8A4B1B688A4A012191
:1034F00042F823107B68B3F1FF3F20D0854B1A6858
:103500008A4913469B0013449B000B4400221A6017
:10351000804B1A68854913469B0013449B000B445B
:103520000833834A1A607B4B1A68804913469B0014
:1035300013449B000B440C337E4A1A6015E0754B14
:103540001A687A4913469B0013449B000B440433CA
:1035500000221A606F4B1A68744913469B0013448B
:103560009B000B441033744A1A606A4B1B68694A0B
:103570001268724941F82320664B1B689B006F4A12
:1035800013447B6194E0634B03221A60614B1B6818
:10359000614A52F82330002B41D15E4B1B685F4AD1
:1035A000DB00134400229A715A4B1B685B4ADB0014
:1035B000134400221A71574B1B68584ADB0013440E
:1035C00000225A71534B1B68544A4FF4E13142F8C0
:1035D0003310504B1B68184603F0DAFB4D4B1B6849
:1035E0009B014F4A13444F49184606F0CFFB494B05
:1035F0001868484B1A6813461B019B1A9B004A4ADD
:103600009918444B1B68DB00444A13441A4607F0E0
:10361000BDFC404B1B68404A012142F823107B68E7
:10362000B3F1FF3F20D03B4B1A68404913469B0043
:1036300013449B000B4400221A60364B1A683B4926
:1036400013469B0013449B000B4408333C4A1A600A
:10365000304B1A68354913469B0013449B000B44BA
:103660000C33384A1A6015E02A4B1A682F49134662
:103670009B0013449B000B44043300221A60254B2B
:103680001A682A4913469B0013449B000B441033CD
:103690002D4A1A601F4B1B681E4A1268274941F8C1
:1036A00023201C4B1B689B00244A13447B6100BFF2
:1036B0007B68B3F1FF3F27D0164B1A6813461B01F6
:1036C0009B1A9B002833184A13440433114A12688A
:1036D0001E49184606F09CFB0E4B18680D4B1A68E5
:1036E000124913469B0013449B000B44083319688E
:1036F000084B1A680D4C13469B0013449B0023444F
:103700001B681A4600F0E0F87B6918461C37BD4676
:1037100090BD00BF001500200415002020140020DB
:103720003811002078060020B8120020581400201C
:10373000E0100020E010002038110020E8140020E4
:10374000E0100020E0100020381100207539000042
:1037500080B483B000AF78603960002318460C371E
:10376000BD465DF8047B704780B483B000AF7860DD
:10377000084611461A460346FB700B46BB701346BB
:103780007B70002318460C37BD465DF8047B7047FC
:1037900080B586B000AFF860B9607A60FB683B61C5
:1037A0003B69002B33D03B691B681F4AD35C012B5C
:1037B0002DD13B691B681D4A52F82330012B0FD1D4
:1037C0003B691A681A4913469B0013449B000B443B
:1037D00008331B687A681946B868FEF7BFFC0EE02C
:1037E0003B691A68124913469B0013449B000B4423
:1037F0000C331B687A681946B868FEF7AFFC3B6962
:103800001B68094A0021D1540023FB7506E07A6841
:103810000021B86808F04CFD2023FB75FB7D18469D
:103820001837BD4680BD00BF50140020D0140020C2
:103830005814002080B586B000AFF860B9607A6097
:10384000FB683B613B69002B2AD03B691B68002168
:10385000184607F0EFFC0346082B21D03B691A6895
:10386000134913469B0013449B000B4410331B6801
:103870007A68B9681846FEF771FC3B6918683B69BD
:103880001A680B4913469B0013449B000B441033EA
:103890001B687A68194607F0A9FC0346FB7501E02E
:1038A0002023FB75FB7D18461837BD4680BD00BF41
:1038B0005814002080B483B000AF786000BF0C378C
:1038C000BD465DF8047B704780B588B000AFF860F6
:1038D000B9607A60FB68052B06D9214B214A40F27A
:1038E0008911214808F0A2F9204AFB6852F82330D8
:1038F000FB61FB6993F82C301B09DBB21A461C4BA9
:1039000053F82230BB61FB6993F82C3003F00F03AE
:103910007B61FB695B78DBB2002B01D009231AE0E5
:10392000FB6901225A70BB681A467969B869FFF7CA
:10393000E7FB7A687969B86906F066F90122796966
:10394000B869FFF701FC7B69DBB201221946B8694F
:1039500006F045F8002318462037BD4680BD00BF5D
:1039600008E9000074EA000028E900001C59002062
:103970001CF2000080B582B000AF78600B46FB708F
:103980007B68184600F004F800BF0837BD4680BDCC
:1039900080B586B000AF78607B68052B06D93C4BBC
:1039A0003C4A40F2AD113C4808F040F93B4A7B6884
:1039B00052F823307B617B6993F82C301B09DBB212
:1039C0001A46374B53F822303B617B6993F82C3011
:1039D00003F00F03FB600022F9683869FFF7B4FBBE
:1039E000FB68DBB200221946386905F0F8FF7B69F5
:1039F000DB78DBB2002B04D07B691033184605F06E
:103A000037FC7B6900225A70264A7B6813440122E6
:103A10001A70254A7B6852F82330002B1AD12349AB
:103A20007A6813469B0013449B000B440C331968BF
:103A30001E487A6813469B0013449B0003441B688E
:103A40001A467868FFF740FF174A7B68012142F861
:103A5000231019E015497A6813469B0013449B0014
:103A60000B440833196811487A6813469B001344C5
:103A70009B0003441B681A467868FFF725FF0A4A33
:103A80007B68002142F8231000BF1837BD4680BD77
:103A900008E90000CCEA000028E900001C590020D9
:103AA0001CF2000050140020D014002058140020F4
:103AB00080B586B000AF786026497A6813465B000F
:103AC00013449B000B4409331B78002B27D107F1CB
:103AD0000803184605F09CFE0323FB721D497A6813
:103AE00013465B0013449B000B441B6807F108025C
:103AF0001146184605F09EFE16497A6813465B008B
:103B000013449B000B44093303221A707A6813464E
:103B10005B0013449B000F4A13447B6115E00D4981
:103B20007A6813465B0013449B000B4409331B78EF
:103B3000032B08D17A6813465B0013449B00054AA7
:103B400013447B6101E000237B617B6918461837D1
:103B5000BD4680BD3804002080B485B000AFF86059
:103B60000B467A60FB7200BF1437BD465DF8047BDC
:103B7000704700000000000080B58AB000AFF86018
:103B8000B9601346FB71FB68FB61FB69002B3AD0FF
:103B9000FB691B7A3B750023BB7500237B75FB69B2
:103BA0001B680121184605F08DFEFB691868FB694A
:103BB0005B6807F11402194605F0A4FEFB691A6858
:103BC000FB695B681946104605F0B8FEFB691A6888
:103BD000FB695B681946104605F0D4FE03467B83FB
:103BE0007B8B07EE903AF8EE677A17EE900AFCF7B7
:103BF000BFFE0DA3D3E90023FCF712FF02460B46DC
:103C0000C7E9082305E04FF000024FF00003C7E9C1
:103C10000823B968D7E90823C1E9002300BF283782
:103C2000BD4680BDAFF30080100010001000F03ED4
:103C300080B483B000AF786000BF0C37BD465DF83C
:103C4000047B704780B483B000AF786000BF0C374E
:103C5000BD465DF8047B704780B483B000AF7860E8
:103C600000BF0C37BD465DF8047B704780B588B057
:103C700000AF78617B691B68FB61FB690133BB6145
:103C80000FE0FB69DB000E4A1A443B46114618461A
:103C900003F0B6FC0B4B1B68002B08D1B86901F090
:103CA0006DFF094B1B78DBB2002BEAD100E000BFAF
:103CB000002003F0F1FB002318462037BD4680BDED
:103CC00030150020541500207A06002080B586B0FB
:103CD00000AF78611B4B1B681B68002B0CBF0123D6
:103CE0000023DBB21A46184B1A701AE03B461749FC
:103CF000184603F085FC134B1B685B79002B02D13F
:103D0000134803F06AFC002001F038FF0D4B1B68DC
:103D10001B68002B14BF01230023DBB21A460D4B96
:103D20001A70094B1B78DBB2002BDFD1786900F0E9
:103D300013F8002003F0B0FB002318461837BD46E7
:103D400080BD00BFF0EA00007A06002028150020A0
:103D5000301500201C15002080B586B002AF7860B9
:103D60001E4B01221A600023FB6010E0FB68DB00A1
:103D70001B4A1344184603F030FCFB68DB00184A6A
:103D80001344184603F056FCFB680133FB60FB68E4
:103D9000002BEBDD0023FB6010E01249FA681346AC
:103DA0009B0013449B000B440F4A01921A69009236
:103DB0000FCB03F082FBFB680133FB60FB68002B39
:103DC000EBDD0A4B00221A7002F006F9084803F0F6
:103DD00004FC002318461037BD4680BD5415002052
:103DE0003015002058150020501500207A060020BC
:103DF0002015002080B586B000AF786139610E4B88
:103E000029221A6002F094FD02F05CFF0B4B1B6844
:103E100000221A6001F0C8FE01209FED090A03F09C
:103E20004FFA3B460749184603F0EAFB00231846C1
:103E30001837BD4680BD00BF6C150020F0EA0000B9
:103E40006F12833A2015002080B400AF084B5A79D6
:103E50000132D2B25A71064B5B79632B02D9044B03
:103E600000225A7100BFBD465DF8047B704700BF59
:103E700048180020F0B587B000AF034687ED000B6F
:103E8000FB814FF000024FF00003D7E90001FDF77E
:103E90004DF80346002B18D04FF00002204BD7E915
:103EA0000001FDF739F80346002B0BD0B7F90E409F
:103EB000D7E90001FDF764F80346DBB204FA03F327
:103EC000FB8226E00023FB8223E04FF00002154B2B
:103ED000D7E90001FDF72AF80346002B0FD0B7F908
:103EE0000E603C687B6883F0004520462946FDF75C
:103EF00047F80346DBB246FA03F3FB8209E0B7F961
:103F00000E30002B03DA4FF6FF73FB8201E0002333
:103F1000FB82B7F9163018461C37BD46F0BD00BF0E
:103F200000002E4000002EC080B485B000AF786045
:103F3000484BD3F8C0311A46642303FB02F31A46F8
:103F4000454B93F8F3309A4221D37B681A78414B62
:103F500093F8CB319A421AD13E4B032283F8CA21FF
:103F60003C4B0022C3F8C0213A4B93F8CB213A4B8B
:103F700083F80721374B93F8CC21374B83F8042182
:103F8000344B93F8CC21344B83F805215BE0324B62
:103F900093F8FE301A46304B93F8F430D31AFB6096
:103FA0002D4B93F8FE301A46FB68934201D900234B
:103FB000FB60284BD3F8C0311A46642303FB02F39D
:103FC0001A46FB68934220D8224B012283F8CA216B
:103FD000204B0022C3F8C0211E4B93F8CC211E4B6E
:103FE00083F806211B4B93F8CB211B4B83F8072149
:103FF000184B93F8CB21184B83F80421154B93F8F9
:10400000CC21154B83F805211DE0134B93F8F220CA
:10401000114B83F8FF200F4B93F8CB210E4B83F805
:1040200006210C4B93F8CB210B4B83F80721094B4E
:1040300093F8CC21084B83F80421064B93F8CB214D
:10404000054B83F8052100BF1437BD465DF8047B9E
:10405000704700BF781600207015002080B483B030
:1040600000AF314B93F8FE301A462F4B93F8F430E3
:10407000D31A7B602C4B93F8FE301A467B68934230
:1040800001D900237B60294BD3F8C0311A46642341
:1040900003FB02F31A467B68934220D8234B072286
:1040A00083F8CA21214B0022C3F8C0211F4B93F88B
:1040B000CC211D4B83F806211C4B93F8CB211A4BC6
:1040C00083F80721194B93F8CB21174B83F8042170
:1040D000164B93F8CC21144B83F805211DE0124BAD
:1040E00093F8F220104B83F8FF20104B93F8CB216C
:1040F0000D4B83F806210D4B93F8CB210A4B83F827
:1041000007210A4B93F8CC21074B83F80421074B76
:1041100093F8CB21044B83F8052100BF0C37BD4633
:104120005DF8047B704700BF7015002078160020F2
:1041300080B485B000AF78603D4B93F8FE301A46EE
:104140003B4B93F8F830D31AFB60394B93F8FE30B1
:104150001A46FB68934201D90023FB60354BD3F824
:10416000C0311A46642303FB02F3BB60BA68FB68E4
:104170009A420FD37B681A782E4B93F8CC319A422F
:1041800008D12C4B122283F8CA212A4B0022C3F8F3
:10419000C02147E0264B93F8F3301A46BB689342A0
:1041A00021D37B681A78234B93F8CB319A421AD1EA
:1041B000204B132283F8CA211E4B0022C3F8C021D2
:1041C0001C4B93F8CB211A4B83F80721194B93F81A
:1041D000CC21174B83F80321164B93F8CB21144BBA
:1041E00083F802211EE0124B93F8F720104B83F85E
:1041F000FF20104B93F8CB210D4B83F806210D4B7C
:1042000093F8CB210A4B83F807210A4B93F8CC2172
:10421000074B83F80321074B93F8CB21044B83F81A
:10422000022100BF00BF1437BD465DF8047B704714
:10423000701500207816002080B400AF554B93F81D
:10424000F530013B072B00F2978001A252F823F0D2
:1042500071420000BF420000D1420000E342000072
:104260003143000043430000554300006743000012
:10427000494B082283F8CA21474B0022C3F8C021CA
:10428000444B93F8F220434B83F8FF20424B93F8C2
:10429000CB21404B83F806213F4B93F8CB213D4B7C
:1042A00083F807213C4B93F8CC213A4B83F8042147
:1042B000394B93F8CB21374B83F8052165E0364B1A
:1042C0000D2283F8CA21344B0022C3F8C0215CE0E0
:1042D000314B112283F8CA212F4B0022C3F8C02191
:1042E00053E02D4B022283F8CA212B4B0022C3F846
:1042F000C021284B93F8F220264B83F8FF20264B51
:1043000093F8CB21234B83F80621234B93F8CB2141
:10431000204B83F80721204B93F8CC211D4B83F8C9
:1043200004211D4B93F8CB211A4B83F805212CE077
:10433000194B0A2283F8CA21174B0022C3F8C02167
:1043400023E0154B102283F8CA21134B0022C3F837
:10435000C0211AE0104B042283F8CA210E4B002220
:10436000C3F8C02111E00C4B142283F8CA210A4B78
:104370000022C3F8C02108E0074B0B2283F8CA21B2
:10438000054B0022C3F8C02100BF00BFBD465DF849
:10439000047B7047701500207816002080B582B02D
:1043A00000AF78607B6800221A727B6801225A6035
:1043B0001A4B4FF0FF32C3F8D820184B0022C3F835
:1043C000DC20164BD3F8D8300A2200211448FEF71F
:1043D000E7FE02467B681A617B681B694FF4E13196
:1043E0001846FFF7B5F90D4B012283F8E0200B4B7F
:1043F000002283F8E1207B681869084B93F8E120DC
:10440000064B93F8E0300821FFF7AEF97B680122F4
:104410001A7200BF0837BD4680BD00BF701500206E
:104420004C16002080B584B002AF78607B68002213
:104430001A727B6801225A605E4B002283F8E220E8
:104440005C4B0022C3F8E4205A4BD3F8E430594ABD
:1044500092F8E22011461846FEF7A4FD02467B685A
:104460009A627B68544A5A627B689A6A7B685B6A84
:1044700019461046FEF7BAFD4E4B2B2283F8F0206A
:104480004C4B402283F8F1207B68986A002301930B
:10449000002300930223494A1D21FEF7F2FD4FF449
:1044A000FA7004F025FF434B2A2283F801217B6830
:1044B000986A00230193012300930123404A1D21A0
:1044C000FEF7DFFD03461A463A4B83F80121394BCC
:1044D00093F80131002B10D17B68986A0123019376
:1044E000002300930123364A1D21FEF796FD012289
:1044F00033493448FDF732FE03E02E4B002283F8A7
:1045000000212C4B2A2283F8F0202A4B93F800310B
:1045100023F00103DAB2274B83F8F1207B68986A15
:1045200000230193002300930223244A1D21FEF758
:10453000A8FD204B0E2283F8F0201E4B012283F8A9
:10454000F1207B68986A00230193002300930223E3
:104550001A4A1D21FEF795FD164B5B2283F8F020C9
:10456000144B002283F8F1207B68986A00230193A2
:10457000002300930223114A1D21FEF782FD0D4BFB
:104580002A2283F8F0200B4B012283F8F1207B686C
:10459000986A00230193002300930223074A1D21F8
:1045A000FEF76FFD7B6801221A7200BF0837BD4617
:1045B00080BD00BF70150020A0860100601600209D
:1045C000711600207016002080B500AFFFF73CFC8C
:1045D00000BF80BD00000000B0B594B002AF944BA6
:1045E000D3E93201934BD3E90823FCF781FC03465E
:1045F000002B05D18F4BD3E908238D49C1E9322324
:104600008B4BD3F8C03013228B491846FFF7C0F804
:104610000346FB71132288498848FDF79FFD844BB0
:1046200093F8C731002B3CD1814B012283F8C7217D
:104630007F4B022283F8C821814B012283F8F220AC
:104640007F4B012283F8F4207D4B012283F8F52073
:104650007B4B012283F8F720794B012283F8F82065
:10466000774B012283F8F620754B012283F8F9205D
:10467000734B012283F8F320714BFF2283F8FE2055
:104680006F4B012283F8FA206D4B012283F8FD2045
:104690006B4B012283F8FC20694B012283F8FB203D
:1046A000D3E0634B93F8C831032B10D0032B13DCFA
:1046B000012B02D0022B05D00EE05D4B042283F8C3
:1046C000C821C2E05A4B042283F8C821BDE0584BF0
:1046D000042283F8C821B8E0FB79002B40F0B480B5
:1046E000574B93F8B030162B40F09780544B93F80B
:1046F000B130222B00F08580552B40F089804C4B47
:10470000032283F8C8214E4B93F8B2204C4B83F818
:10471000F2204B4B93F8B320494B83F8F420484BDD
:1047200093F8B420464B83F8F520454B93F8B52019
:10473000434B83F8F720424B93F8B620404B83F865
:10474000F8203F4B93F8B7203D4B83F8F6203C4BC5
:1047500093F8B8203A4B83F8F920394B93F8B920F5
:10476000374B83F8F320364B93F8F3301846FCF7B9
:10477000DDF802460B462CA1D1E90001FCF77AFADC
:1047800002460B4643EC172BB0EE470AF0EE670AE1
:1047900002F09EFFB0EE407AF0EE607A87ED0E7B7D
:1047A0004FF00002274BD7E90E01FCF7ABFB0346A5
:1047B000002B09D0D7E90E01FCF7E2FB0346DAB281
:1047C0001F4B83F8FE2003E01D4BFF2283F8FE20E1
:1047D0001B4B93F8BA201A4B83F8FA20184B93F826
:1047E000BB20174B83F8FD20154B93F8BC20144BCE
:1047F00083F8FC20124B93F8BD20114B83F8FB206B
:1048000022E00B4B012283F8C82101F01DFE1BE0C2
:10481000074B042283F8C82116E0054B042283F8D5
:10482000C82111E0AFF3008000000000004CED4013
:104830007816002080060020331600202016002065
:10484000701500200000704000BFBF4BD3E92A0163
:10485000BE4BD3E90223FCF74BFB0346002B05D1EB
:10486000BA4BD3E90223B849C1E92A23B64BD3F89E
:10487000A0301846FDF742FE0346BB71B24BD3E9A8
:104880002201B24BD3E90423FCF732FB0346002B91
:1048900005D1AE4BD3E90423AB49C1E92223AA4B8E
:1048A000D3F880301846FDF729FE03467B71A64BEE
:1048B000D3E90401A54BD3E90623FCF719FB034612
:1048C000002B05D1A14BD3E906239F49C1E904235D
:1048D0000123FB719C4B986AFA1D0023019301236D
:1048E000009301231D21FEF7CCFB0346FB71FB79EE
:1048F000002B54D1944B986A07F1100201230193C5
:104900000023009306231D21FEF787FB07F110010A
:1049100007F1180306221846FDF720FC07F11801DD
:1049200007F1080302221846FDF718FC7B7A3B7357
:104930003B7A7B7307F10C0107F11803022218463A
:10494000FDF70CFC07F11803991C07F1080302227C
:104950001846FDF703FC7B7A3B733B7A7B7307F1C8
:104960000C0107F11803023302221846FDF7F6FB8B
:1049700007F11803191D07F1080302221846FDF775
:10498000EDFB7B7A3B733B7A7B7307F10C0107F1FC
:104990001803043302221846FDF7E0FB05E000236C
:1049A0003B8300237B830023BB83B7F918309FED43
:1049B000620B1846FFF75EFA03461846FBF7C6FF80
:1049C00002460B46FBF776FE02460B46104619469A
:1049D0005BA3D3E90023FCF723F802460B461046FD
:1049E00019464FF000025A4BFCF744F902460B46B9
:1049F000C7E90E23B7F91A309FED4F0B1846FFF7A2
:104A000039FA03461846FBF7A1FF02460B46FBF7AF
:104A100051FE02460B461046194649A3D3E900232E
:104A2000FBF7FEFF02460B46104619464FF0000208
:104A3000474BFCF71FF902460B46C7E90C23B7F9B1
:104A40001C309FED3D0B1846FFF714FA034618463D
:104A5000FBF77CFF02460B46FBF72CFE02460B469B
:104A60001046194636A3D3E90023FBF7D9FF0246C7
:104A70000B46104619464FF00002354BFCF7FAF88A
:104A800002460B46C7E90A23D7E90E23D7E90E01F0
:104A9000FBF7C6FF02460B4614461D46D7E90C231A
:104AA000D7E90C01FBF7BCFF02460B46204629461E
:104AB000FBF700FE02460B4614461D46D7E90A23C3
:104AC000D7E90A01FBF7ACFF02460B462046294610
:104AD000FBF7F0FD02460B4643EC172BB0EE470AFE
:104AE000F0EE670A06F09CFF55EC104B194B93F85B
:104AF000FA301846FBF71AFF02460B4620462946B5
:104B0000FBF7D6FD02460B46104619460F4BD3E97C
:104B100000230124FCF70AFA0346002B01D10023ED
:104B20001C46E3B287F827300A4B93F8FC30002B81
:104B300012D1FF23FB711EE000000000000000C046
:104B400008AC1C5A643BCF3F78160020800600203A
:104B500000408F4070150020A34B93F8FB20A24B20
:104B600093F8F330D31ADAB29F4B93F8FC30B2FBD0
:104B7000F3F3DBB2FB71FB791A469B4B93F8FD30E4
:104B800003FB02F3984A92F8F32013443B62974BDD
:104B900093F8C6310E2B07D8944B93F8C6310133E6
:104BA000DAB2924B83F8C621904B93F8C431002BB4
:104BB00075D18E4B012283F8C4218B4B93F8F330CF
:104BC0001A463B6A9B1A1846FBF7C0FE02460B4684
:104BD000C7E90E234FF000024FF00003D7E90E01A2
:104BE000FCF7AEF90346002B03D0814BD3E9002339
:104BF00011E04FF000024FF00003D7E90E01FCF77F
:104C000081F90346002B03D07A4BD3E9002302E05D
:104C1000794BD3E900237549C1E96E23734B93EDBA
:104C20006E7BB0EE470AF0EE670A06F0E9FDB0EEE3
:104C3000407AF0EE607A6D4B83ED6E7B6A4B93F8B1
:104C4000FC301846FBF772FE02460B46D7E90E0110
:104C5000FCF710F802460B466449C1E96C23634B2C
:104C600093ED6C7BB0EE470AF0EE670A06F0C8FDE4
:104C7000B0EE407AF0EE607A5C4B83ED6C7B5B4B80
:104C8000052283F8C521584B93F8F3301846FBF7FB
:104C90004DFE02460B465449C1E93A2371E1534B9C
:104CA00093F8C531013B032B00F23E8101A252F87B
:104CB00023F000BFC54C0000994D0000FD4D0000E1
:104CC000BF4E0000484BD3E93A45474B93F8F330C9
:104CD0001846FBF73BFE02460B4620462946FCF7EA
:104CE0001BF90346002B0FD0404B052283F8C5214A
:104CF0003D4B93F8F3301846FBF718FE02460B467F
:104D00003949C1E93A2339E1384B93F8C631092BC7
:104D100027D9354BD3E93A45334B93F8F33018464E
:104D2000FBF714FE02460B4620462946FCF7FEF828
:104D30000346002B15D02D4B012283F8C5212B4BA8
:104D4000002283F8C621284BD3E93A01274BD3E947
:104D50006C23FBF7ADFC02460B462349C1E93A231D
:104D60000CE197F82730002B00F008811F4B03223D
:104D700083F8C5211D4B002283F8C6211A4BD3E9C5
:104D80003A011A4BD3E96E23FBF794FC02460B461B
:104D90001549C1E93A23F1E097F82730002B0CD0F0
:104DA000124B022283F8C521386AFBF7CFFD024679
:104DB0000B460D49C1E93A23E3E00C4B012283F88D
:104DC000C5210A4B002283F8C621074BD3E93A01DB
:104DD000064BD3E96C23FBF76BFC02460B460249FA
:104DE000C1E93A23CDE000BF7015002078160020FD
:104DF000785800208058002088580020AD4B93F848
:104E0000C631092B24D9AC4BD3E93A45386AFBF7B4
:104E10009DFD02460B4620462946FCF77DF80346D9
:104E2000002B15D0A34B032283F8C521A14B0022F0
:104E300083F8C621A04BD3E93A019E4BD3E96E23F8
:104E4000FBF738FC02460B469B49C1E93A2398E040
:104E500097F82730002B15D1964B042283F8C521F3
:104E6000944B002283F8C621934BD3E93A01914B2E
:104E7000D3E96E23FBF71CFC02460B468E49C1E9C1
:104E80003A237EE08C4BD3E93A45386AFBF75EFD66
:104E900002460B4620462946FCF748F80346002BFD
:104EA00000D16EE0834B022283F8C521386AFBF7FC
:104EB0004DFD02460B468049C1E93A2361E097F86F
:104EC0002730002B15D07B4B032283F8C521794B6B
:104ED000002283F8C621784BD3E93A01754BD3E918
:104EE0006E23FBF7E7FB02460B467349C1E93A2301
:104EF00046E0704B93F8C631092B41D96D4B012226
:104F000083F8C5216B4B002283F8C6216A4BD3E995
:104F10003A01684BD3E96C23FBF7CAFB02460B4608
:104F20006549C1E93A232BE097F82730002B15D0CB
:104F3000604B032283F8C5215E4B002283F8C62113
:104F40005D4BD3E93A015B4BD3E96E23FBF7B2FB30
:104F500002460B465849C1E93A2312E0554B052257
:104F600083F8C521544B93F8F3301846FBF7DEFC69
:104F700002460B465049C1E93A2302E000BF00E077
:104F800000BF4C4BD3F8C031B3F1FF3F06D0494BC3
:104F9000D3F8C0310133474AC2F8C031454B93F8CA
:104FA000C931002B07D1434B012283F8C921FFF7F8
:104FB00043F900F054BD3F4B93F8CA31013B142B29
:104FC00000F2248501A252F823F000BF2150000016
:104FD000A7500000BD5000004F5100006752000074
:104FE000E352000035530000DF530000E55300009A
:104FF00043540000CD54000057550000B555000043
:105000003F560000A5560000035700008D570000D2
:1050100097570000195800006B5800009159000084
:10502000244BD3F8C0311A46642303FB02F31A461B
:10503000214B93F8F4309A421BD31E4B032283F882
:10504000CA211C4B0022C3F8C0211A4B93F8CB2174
:10505000194B83F80721174B93F8CC21164B83F893
:105060000421144B93F8CC21134B83F8052100F055
:10507000F6BC104B93F8CC210F4B83F806210D4B57
:1050800093F8CB210C4B83F807210A4B93F8CB21E3
:10509000094B83F80421074B93F8CC21064B83F886
:1050A000052100F0DCBCBB1D1846FEF73DFF00F0FB
:1050B000D6BC00BF7816002070150020B74BD3F87F
:1050C000C0311A46642303FB02F31A46B44B93F82B
:1050D000F6309A4227D3B14B022283F8CA21AF4B54
:1050E0000022C3F8C021AE4B93F8F220AC4B83F8FA
:1050F000FF20AA4B93F8CB21A94B83F80621A74B9D
:1051000093F8CB21A64B83F80721A44B93F8CC212D
:10511000A34B83F80421A14B93F8CB21A04B83F838
:10512000052100F09CBC9D4B93F8CB219C4B83F850
:1051300007219A4B93F8CC21994B83F80421974B84
:1051400093F8CC21964B83F8052100F088BC954B51
:10515000D3E90E01924BD3E93A23FBF78BFD0246CC
:105160000B4614461D468E4B93F8F4301846FBF759
:10517000DDFB02460B4620462946FBF799FA02461C
:105180000B4643EC172BB0EE470AF0EE670A02F02D
:105190009FFAB0EE407AF0EE607A87ED0E7B4FF02A
:1051A0000002814BD7E90E01FBF7ACFE0346002B52
:1051B00015D04FF000024FF00003D7E90E01FBF7C6
:1051C000B5FE0346002B07D0D7E90E01FBF7D8FE4A
:1051D0000346DBB2FB7104E00023FB7101E0FF2317
:1051E000FB71FB791A466E4B93F8F630D31A7B6449
:1051F000FB791A467B6C934201D900237B64674B91
:10520000D3F8C0311A46642303FB02F31A467B6CC1
:10521000934209D8614B052283F8CA215F4B0022D3
:10522000C3F8C02100F01BBC5D4B93F8F2205C4B2F
:1052300083F8FF20594B93F8CB21594B83F8062173
:10524000564B93F8CB21564B83F80721534B93F8D9
:10525000CC21534B83F80421504B93F8CB21504B76
:1052600083F80521FBE34D4BD3F8C0311A46642384
:1052700003FB02F37B644A4B93F8F4301A467B6CD1
:1052800093420CD2464B93F8F3301A467B6C934210
:105290000ED3424B93F8CB21BB799A4208D13F4BB6
:1052A000062283F8CA213D4B0022C3F8C021D6E371
:1052B0003A4B93F8CC213A4B83F80621374B93F8BD
:1052C000CB21374B83F80721344B93F8CB21344B58
:1052D00083F80421314B93F8CC21314B83F805211D
:1052E000BDE32E4BD3F8C0311A46642303FB02F30F
:1052F0001A462B4B93F8F6309A4208D3274B0422D8
:1053000083F8CA21254B0022C3F8C021A7E3234B11
:1053100093F8CB21224B83F80721204B93F8CC2123
:105320001F4B83F804211D4B93F8CB211C4B83F8B2
:10533000052194E3194BD3F8C0311A46642303FBCB
:1053400002F31A46164B93F8F4309A422ED3134BBD
:10535000082283F8CA21114B0022C3F8C021104B48
:1053600093F8F2200E4B83F8FF200C4B93F8CB21DF
:105370000B4B83F80621094B93F8CB21084B83F89C
:105380000721064B93F8CC21054B83F80421034BEE
:1053900093F8CB21024B83F8052160E378160020B7
:1053A000701500208006002000007040BB4B93F871
:1053B000CC21BB4B83F80621B84B93F8CB21B84BDB
:1053C00083F80721B54B93F8CB21B54B83F8042123
:1053D000B24B93F8CC21B24B83F805213FE3FEF7A3
:1053E0003DFE3CE3AD4BD3F8C0311A46642303FBCA
:1053F00002F31A46AA4B93F8F4309A4208D3A74B0B
:105400000A2283F8CA21A54B0022C3F8C02126E353
:10541000A24B93F8CC21A24B83F806219F4B93F823
:10542000CB219F4B83F807219C4B93F8CC219C4BBD
:1054300083F80521994B93F8CB21994B83F80421EC
:105440000DE3974B93F8FE301A46954B93F8F430E2
:10545000D31A7B64924B93F8FE301A467B6C9342CE
:1054600001D900237B648D4BD3F8C0311A466423E5
:1054700003FB02F31A467B6C934208D8874B092240
:1054800083F8CA21854B0022C3F8C021E7E2844B90
:1054900093F8F220824B83F8FF20804B93F8CB21C6
:1054A0007F4B83F806217D4B93F8CB217C4B83F80F
:1054B00007217A4B93F8CC21794B83F80421774B61
:1054C00093F8CB21764B83F80521C8E2744B93F80F
:1054D000FE301A46724B93F8F830D31A7B64704B47
:1054E00093F8FE301A467B6C934201D900237B640B
:1054F0006A4BD3F8C0311A46642303FB02F31A4601
:105500007B6C934208D8654B0C2283F8CA21634B0D
:105510000022C3F8C021A2E2614B93F8F720604B50
:1055200083F8FF205D4B93F8CB215D4B83F8062178
:105530005A4B93F8CB215A4B83F80721574B93F8DA
:10554000CC21574B83F80321544B93F8CB21544B78
:1055500083F8022183E2514BD3F8C0311A46642309
:1055600003FB02F31A464E4B93F8F8309A4208D3E5
:105570004A4B0B2283F8CA21484B0022C3F8C021B2
:105580006DE2464B93F8CC21454B83F80621434B03
:1055900093F8CB21424B83F80721404B93F8CC2161
:1055A0003F4B83F802213D4B93F8CB213C4B83F8D2
:1055B000032154E23A4B93F8FE301A46384B93F8E5
:1055C000F830D31A7B64364B93F8FE301A467B6C66
:1055D000934201D900237B64304BD3F8C0311A4683
:1055E000642303FB02F31A467B6C934208D82B4BCF
:1055F0000E2283F8CA21294B0022C3F8C0212EE2D3
:10560000274B93F8F720264B83F8FF20234B93F882
:10561000CB21234B83F80621204B93F8CB21204B41
:1056200083F807211D4B93F8CC211D4B83F80321F0
:105630001A4B93F8CB211A4B83F802210FE2174B38
:10564000D3F8C0311A46642303FB02F31A46144B05
:1056500093F8F8309A4208D3104B0D2283F8CA21F0
:105660000E4B0022C3F8C021F9E10C4B93F8CC217A
:105670000B4B83F80621094B93F8CB21084B83F899
:105680000721064B93F8CC21054B83F80221034BED
:1056900093F8CB21024B83F80321E0E17816002038
:1056A00070150020B64BD3F8C0311A46642303FBB3
:1056B00002F31A46B34B93F8F4309A4208D3B04B36
:1056C000102283F8CA21AE4B0022C3F8C021C6E1E4
:1056D000AB4B93F8CC21AB4B83F80621A84B93F846
:1056E000CB21A84B83F80721A54B93F8CC21A54BE0
:1056F00083F80221A24B93F8CB21A24B83F803211C
:10570000ADE1A04B93F8FE301A469E4B93F8F4306F
:10571000D31A7B649B4B93F8FE301A467B6C934202
:1057200001D900237B64964BD3F8C0311A46642319
:1057300003FB02F31A467B6C934208D8904B0F226E
:1057400083F8CA218E4B0022C3F8C02187E18D4B1C
:1057500093F8F7208B4B83F8FF20894B93F8CB21EC
:10576000884B83F80621864B93F8CB21854B83F831
:105770000721834B93F8CC21824B83F80321804B84
:1057800093F8CB217F4B83F8022168E17B1D1846FB
:10579000FEF7CEFC63E17A4BD3F8C0311A4664239E
:1057A00003FB02F31A46774B93F8F8309A421AD368
:1057B000734B132283F8CA21714B0022C3F8C02116
:1057C0006F4B93F8CB216F4B83F807216C4B93F809
:1057D000CC216C4B83F80321694B93F8CB21694BA7
:1057E00083F802213BE1664B93F8CC21654B83F8AB
:1057F0000621634B93F8CB21624B83F80721604B62
:1058000093F8CC215F4B83F802215D4B93F8CB21B9
:105810005C4B83F8032122E1594BD3F8C0311A467F
:10582000642303FB02F31A46564B93F8F9309A426D
:1058300008D3534B112283F8CA21514B0022C3F8DD
:10584000C0210CE14E4B93F8CB214E4B83F807213E
:105850004B4B93F8CC214B4B83F80321484B93F8E7
:10586000CB21484B83F80221F9E0474BD3E90E01E5
:10587000444BD3E93A23FBF7FDF902460B461446A5
:105880001D46404B93F8F8301846FBF74FF8024698
:105890000B4620462946FAF70BFF02460B4643EC1F
:1058A000172BB0EE470AF0EE670A01F011FFB0EED9
:1058B000407AF0EE607A87ED0E7B4FF00002334BBA
:1058C000D7E90E01FBF71EFB0346002B15D04FF066
:1058D00000024FF00003D7E90E01FBF727FB034658
:1058E000002B07D0D7E90E01FBF74AFB0346DBB2DA
:1058F000FB7104E00023FB7101E0FF23FB71FB79E6
:105900001A46204B93F8F930D31A7B64FB791A4678
:105910007B6C934201D900237B64194BD3F8C031CF
:105920001A46642303FB02F31A467B6C934208D8A1
:10593000134B152283F8CA21114B0022C3F8C02152
:105940008DE0104B93F8F7200E4B83F8FF200C4BA3
:1059500093F8CB210B4B83F80621094B93F8CB210D
:10596000084B83F80721064B93F8CC21054B83F8AD
:105970000321034B93F8CB21024B83F802216EE005
:10598000781600207015002080060020000070406E
:10599000774BD3F8C0311A46642303FB02F37B64D0
:1059A000744B93F8F8301A467B6C93420CD2714BCF
:1059B00093F8F3301A467B6C93420ED36C4B93F8FA
:1059C000CB217B799A4208D1694B162283F8CA21F0
:1059D000674B0022C3F8C02141E0654B93F8CC210E
:1059E000644B83F80621624B93F8CB21614B83F81B
:1059F00007215F4B93F8CC215E4B83F802215C4B6F
:105A000093F8CB215B4B83F8032128E0584BD3F864
:105A1000C0311A46642303FB02F31A46554B93F830
:105A2000F9309A4208D3524B142283F8CA21504BC2
:105A30000022C3F8C02111E04D4B93F8CB214D4B10
:105A400083F807214A4B93F8CC214A4B83F8032172
:105A5000474B93F8CB21474B83F8022100BF444BBF
:105A6000D3F83031434A92F8022111461846FCF728
:105A70007DFD3F4BD3F81C313E4A92F8032111467D
:105A80001846FCF773FD3A4BD3F88031394A92F847
:105A9000042111461846FCF769FD354BD3F89431C3
:105AA000344A92F8052111461846FCF75FFD304B49
:105AB000D3F86C312F4A92F8062111461846FCF7AC
:105AC00055FD2B4BD3F858312A4A92F8072111463D
:105AD0001846FCF74BFD264BD3F84421254B93F891
:105AE000FF30002B14BF01230023DBB21946104600
:105AF000FCF73CFD1E4BD3F8A8211E4B93F8F53064
:105B0000032B0ED01B4B93F8F530042B09D0194B07
:105B100093F8F530072B04D0164B93F8F530082B8B
:105B200001D1012300E00023DBB219461046FCF747
:105B30001DFD0F4BD3F808310F4A92ED107BB0EEEC
:105B4000470AF0EE670A1846FCF76EFE084BD3F8DA
:105B5000F430094A92ED127BB0EE470AF0EE670A84
:105B60001846FCF761FE00BF4837BD46B0BD00BF18
:105B700078160020701500208006002080B582B0C5
:105B800000AF78607B68002B03D07B68012B03D0CB
:105B900005E0FEF719FD02E0FEF71EFD00BF00BFA5
:105BA0000837BD4680BD000080B584B000AF082036
:105BB00001F04AFD00F0C4FBB84B012283F8CB2171
:105BC000B64B0022C3F8B420B44B002283F8B020B7
:105BD000B34BD3E90823B149C1E93223B148FEF7F9
:105BE000DDFBAE4B012283F89020AC4B0022C3F8C2
:105BF0009420AA494FF00002AB4BC1E92A23A74BDE
:105C0000002283F89020A64BD3E90223A349C1E9DF
:105C10002A23A64BFB60A14B002283F898209F4BC0
:105C20000122C3F8942000210020FCF7F7FB024674
:105C3000FB681A61994B012283F89820974B012247
:105C400083F87020954B00225A6794494FF0000268
:105C5000954BC1E92223914B002283F87020904B91
:105C6000D3E904238D49C1E92223914BFB608B4B7F
:105C7000002283F87820894B01225A6700210120F5
:105C8000FCF7CCFB0246FB681A61844B012283F8C7
:105C90007820824B00225A60804B0022DA617F4BD1
:105CA00000221A767D4B00221A707D4BD3E9062321
:105CB0007A49C1E904237948FEF7B4FB774B012206
:105CC00083F82021754B0022C3F82421734B002256
:105CD00083F82021774BBB60704B002283F828218A
:105CE0006E4B0122C3F8242101210C20FCF796FB06
:105CF0000246BB681A61694B012283F82821674B71
:105D0000012283F80C21654B0022C3F81021634B5C
:105D1000002283F80C21684BBB60604B002283F8A3
:105D200014215E4B0122C3F8102101210920FCF748
